{
  "contractName": "ReportCard",
  "abi": [
    {
      "constant": false,
      "inputs": [],
      "name": "getReportCardBalance",
      "outputs": [
        {
          "name": "ret",
          "type": "uint256"
        }
      ],
      "payable": false,
      "stateMutability": "nonpayable",
      "type": "function"
    },
    {
      "constant": false,
      "inputs": [],
      "name": "getReward",
      "outputs": [],
      "payable": false,
      "stateMutability": "nonpayable",
      "type": "function"
    },
    {
      "constant": true,
      "inputs": [],
      "name": "student",
      "outputs": [
        {
          "name": "",
          "type": "address"
        }
      ],
      "payable": false,
      "stateMutability": "view",
      "type": "function"
    },
    {
      "constant": true,
      "inputs": [],
      "name": "gpaGoal",
      "outputs": [
        {
          "name": "",
          "type": "uint256"
        }
      ],
      "payable": false,
      "stateMutability": "view",
      "type": "function"
    },
    {
      "constant": true,
      "inputs": [],
      "name": "submitted",
      "outputs": [
        {
          "name": "",
          "type": "bool"
        }
      ],
      "payable": false,
      "stateMutability": "view",
      "type": "function"
    },
    {
      "constant": false,
      "inputs": [
        {
          "name": "_gpa",
          "type": "uint256"
        }
      ],
      "name": "setGPA",
      "outputs": [],
      "payable": false,
      "stateMutability": "nonpayable",
      "type": "function"
    },
    {
      "constant": false,
      "inputs": [],
      "name": "getGPA",
      "outputs": [
        {
          "name": "ret",
          "type": "uint256"
        }
      ],
      "payable": false,
      "stateMutability": "nonpayable",
      "type": "function"
    },
    {
      "constant": false,
      "inputs": [],
      "name": "giveRefund",
      "outputs": [],
      "payable": false,
      "stateMutability": "nonpayable",
      "type": "function"
    },
    {
      "constant": false,
      "inputs": [],
      "name": "contribute",
      "outputs": [],
      "payable": true,
      "stateMutability": "payable",
      "type": "function"
    },
    {
      "constant": false,
      "inputs": [
        {
          "name": "school",
          "type": "address"
        },
        {
          "name": "name",
          "type": "string"
        }
      ],
      "name": "enroll",
      "outputs": [],
      "payable": false,
      "stateMutability": "nonpayable",
      "type": "function"
    },
    {
      "constant": false,
      "inputs": [
        {
          "name": "ad",
          "type": "address"
        }
      ],
      "name": "getBalance",
      "outputs": [
        {
          "name": "ret",
          "type": "uint256"
        }
      ],
      "payable": false,
      "stateMutability": "nonpayable",
      "type": "function"
    },
    {
      "constant": false,
      "inputs": [
        {
          "name": "_gpa",
          "type": "uint256"
        }
      ],
      "name": "setGPAGoal",
      "outputs": [],
      "payable": false,
      "stateMutability": "nonpayable",
      "type": "function"
    },
    {
      "inputs": [
        {
          "name": "stu",
          "type": "address"
        }
      ],
      "payable": false,
      "stateMutability": "nonpayable",
      "type": "constructor"
    },
    {
      "anonymous": false,
      "inputs": [
        {
          "indexed": false,
          "name": "rd",
          "type": "string"
        }
      ],
      "name": "RewardDisbursement",
      "type": "event"
    }
  ],
  "bytecode": "0x6060604052341561000f57600080fd5b60405160208061076c8339810160405280805190602001909190505033600260006101000a81548173ffffffffffffffffffffffffffffffffffffffff021916908373ffffffffffffffffffffffffffffffffffffffff160217905550806000806101000a81548173ffffffffffffffffffffffffffffffffffffffff021916908373ffffffffffffffffffffffffffffffffffffffff160217905550506106b0806100bc6000396000f3006060604052600436106100ba576000357c0100000000000000000000000000000000000000000000000000000000900463ffffffff1680632e4ee382146100bf5780633d18b912146100e8578063699450e8146100fd5780636f6fee9114610152578063708ddf7b1461017b57806371b6b690146101a8578063797a9b60146101cb578063c71911ce146101f4578063d7bb99ba14610209578063d96a459214610213578063f8b2cb4f1461028f578063fccdb9cb146102dc575b600080fd5b34156100ca57600080fd5b6100d26102ff565b6040518082815260200191505060405180910390f35b34156100f357600080fd5b6100fb61031e565b005b341561010857600080fd5b610110610454565b604051808273ffffffffffffffffffffffffffffffffffffffff1673ffffffffffffffffffffffffffffffffffffffff16815260200191505060405180910390f35b341561015d57600080fd5b610165610479565b6040518082815260200191505060405180910390f35b341561018657600080fd5b61018e61047f565b604051808215151515815260200191505060405180910390f35b34156101b357600080fd5b6101c96004808035906020019091905050610492565b005b34156101d657600080fd5b6101de6104b7565b6040518082815260200191505060405180910390f35b34156101ff57600080fd5b6102076104c1565b005b6102116104c3565b005b341561021e57600080fd5b61028d600480803573ffffffffffffffffffffffffffffffffffffffff1690602001909190803590602001908201803590602001908080601f01602080910402602001604051908101604052809392919081815260200183838082843782019150505050505091905050610512565b005b341561029a57600080fd5b6102c6600480803573ffffffffffffffffffffffffffffffffffffffff16906020019091905050610631565b6040518082815260200191505060405180910390f35b34156102e757600080fd5b6102fd600480803590602001909190505061067a565b005b60003073ffffffffffffffffffffffffffffffffffffffff1631905090565b6004546003541015801561033e5750600560009054906101000a900460ff165b15610428576000809054906101000a900473ffffffffffffffffffffffffffffffffffffffff1673ffffffffffffffffffffffffffffffffffffffff166108fc3073ffffffffffffffffffffffffffffffffffffffff16319081150290604051600060405180830381858888f1935050505015156103bb57600080fd5b7ffe794b5c05e7bc6c9231646e1677c81a2193ae3095eec90645e827765b2eed3d60405180806020018281038252600a8152602001807f41776172642073656e740000000000000000000000000000000000000000000081525060200191505060405180910390a1610452565b6004546003541080156104475750600560009054906101000a900460ff165b1561045157610452565b5b565b6000809054906101000a900473ffffffffffffffffffffffffffffffffffffffff1681565b60045481565b600560009054906101000a900460ff1681565b806003819055506001600560006101000a81548160ff02191690831515021790555050565b6000600354905090565b565b34600660003373ffffffffffffffffffffffffffffffffffffffff1673ffffffffffffffffffffffffffffffffffffffff16815260200190815260200160002060008282540192505081905550565b8173ffffffffffffffffffffffffffffffffffffffff16633399de5d30836040518363ffffffff167c0100000000000000000000000000000000000000000000000000000000028152600401808373ffffffffffffffffffffffffffffffffffffffff1673ffffffffffffffffffffffffffffffffffffffff16815260200180602001828103825283818151815260200191508051906020019080838360005b838110156105cd5780820151818401526020810190506105b2565b50505050905090810190601f1680156105fa5780820380516001836020036101000a031916815260200191505b509350505050600060405180830381600087803b151561061957600080fd5b6102c65a03f1151561062a57600080fd5b5050505050565b6000600660008373ffffffffffffffffffffffffffffffffffffffff1673ffffffffffffffffffffffffffffffffffffffff168152602001908152602001600020549050919050565b80600481905550505600a165627a7a723058200797f35bf4d3d98a60e3eb830444bc5f7a92229e588d3e441b082c5ae456675c0029",
  "source": "pragma solidity ^0.4.2;\r\nimport \"./School.sol\";\r\ncontract ReportCard {\r\n\r\n    address public student;         //address to remit proceeds to if goal is met\r\n    address teacher;                //address that submits grades\r\n    address parent;                 //address of parent\r\n    uint gpa;                       //gpa acheived\r\n    uint public gpaGoal;            //gpa goal\r\n    bool public submitted;          //has teacher submitted grades\r\n\r\n    mapping (address => uint) balances;\r\n\r\n    event RewardDisbursement (string rd);\r\n\r\n    function ReportCard (address stu) {\r\n        parent = msg.sender;\r\n        student = stu;\r\n    }\r\n\r\n    function setGPA(uint _gpa) {\r\n        //todo limit who can set to teacher\r\n        gpa = _gpa;\r\n        submitted = true;\r\n    }\r\n\r\n    function setGPAGoal (uint _gpa) {\r\n        //todo limit who can set to parent/owner\r\n       gpaGoal = _gpa;\r\n    }\r\n    function enroll(School school, string name) {\r\n        //todo limit who can set to parent/owner\r\n        school.registerReportCard(this, name);\r\n    }\r\n\r\n    function contribute() payable {\r\n        balances[msg.sender] += msg.value;\r\n    }\r\n\r\n    function getBalance(address ad) returns (uint ret) {\r\n        //todo limit who can set to contributor\r\n        return balances[ad];\r\n    }\r\n        \r\n    function getReportCardBalance() returns (uint ret) {\r\n        //todo limit who can set to parent/owner/student\r\n        return this.balance;\r\n    }\r\n\r\n\r\n    function getGPA() returns (uint ret) {\r\n        //todo limit who can set to parent/owner/student\r\n        return gpa;\r\n    }\r\n    function getReward () {\r\n        //todo limit who can set to parent/owner/student\r\n        if ((gpa >= gpaGoal) && (submitted)) {\r\n            if (!student.send( this.balance )) {\r\n                throw;\r\n            }\r\n            RewardDisbursement(\"Award sent\");\r\n            return;\r\n        }\r\n        if ((gpa < gpaGoal) && (submitted)) {\r\n            giveRefund;\r\n            return;\r\n        }\r\n    }\r\n\r\n    function giveRefund () {\r\n\r\n    }\r\n\r\n}",
  "sourcePath": "/home/antonio/DAPPS/reportcard_pjs/contracts/ReportCard.sol",
  "compiler": {
    "name": "solc",
    "version": "0.4.18+commit.9cf6e910.Emscripten.clang"
  },
  "schemaVersion": "1.0.1",
  "updatedAt": "2017-12-06T01:17:37.205Z"
}