{
  "contractName": "School",
  "abi": [
    {
      "constant": false,
      "inputs": [
        {
          "name": "student",
          "type": "address"
        }
      ],
      "name": "getStudentNumber",
      "outputs": [
        {
          "name": "",
          "type": "uint256"
        }
      ],
      "payable": false,
      "stateMutability": "nonpayable",
      "type": "function"
    },
    {
      "constant": false,
      "inputs": [
        {
          "name": "ta",
          "type": "address"
        }
      ],
      "name": "setTeacher",
      "outputs": [],
      "payable": false,
      "stateMutability": "nonpayable",
      "type": "function"
    },
    {
      "constant": false,
      "inputs": [
        {
          "name": "student",
          "type": "address"
        }
      ],
      "name": "getStudentName",
      "outputs": [
        {
          "name": "",
          "type": "string"
        }
      ],
      "payable": false,
      "stateMutability": "nonpayable",
      "type": "function"
    },
    {
      "constant": false,
      "inputs": [
        {
          "name": "rca",
          "type": "address"
        },
        {
          "name": "name",
          "type": "string"
        }
      ],
      "name": "registerReportCard",
      "outputs": [],
      "payable": false,
      "stateMutability": "nonpayable",
      "type": "function"
    },
    {
      "constant": true,
      "inputs": [],
      "name": "getSchoolName",
      "outputs": [
        {
          "name": "",
          "type": "bytes32"
        }
      ],
      "payable": false,
      "stateMutability": "view",
      "type": "function"
    },
    {
      "constant": false,
      "inputs": [
        {
          "name": "student",
          "type": "address"
        },
        {
          "name": "subject",
          "type": "string"
        }
      ],
      "name": "listGrade",
      "outputs": [
        {
          "name": "ret",
          "type": "uint256"
        }
      ],
      "payable": false,
      "stateMutability": "nonpayable",
      "type": "function"
    },
    {
      "constant": false,
      "inputs": [
        {
          "name": "rca",
          "type": "address"
        }
      ],
      "name": "calculateGPA",
      "outputs": [
        {
          "name": "ret",
          "type": "uint256"
        }
      ],
      "payable": false,
      "stateMutability": "nonpayable",
      "type": "function"
    },
    {
      "constant": false,
      "inputs": [
        {
          "name": "rca",
          "type": "address"
        },
        {
          "name": "subject",
          "type": "string"
        },
        {
          "name": "_grade",
          "type": "uint256"
        }
      ],
      "name": "enterGrades",
      "outputs": [],
      "payable": false,
      "stateMutability": "nonpayable",
      "type": "function"
    },
    {
      "constant": false,
      "inputs": [
        {
          "name": "number",
          "type": "uint256"
        }
      ],
      "name": "getStudentNameByNumber",
      "outputs": [
        {
          "name": "",
          "type": "string"
        }
      ],
      "payable": false,
      "stateMutability": "nonpayable",
      "type": "function"
    },
    {
      "constant": true,
      "inputs": [],
      "name": "teacher",
      "outputs": [
        {
          "name": "",
          "type": "address"
        }
      ],
      "payable": false,
      "stateMutability": "view",
      "type": "function"
    },
    {
      "constant": true,
      "inputs": [],
      "name": "getNumberOfReportCards",
      "outputs": [
        {
          "name": "ret",
          "type": "uint256"
        }
      ],
      "payable": false,
      "stateMutability": "view",
      "type": "function"
    },
    {
      "constant": false,
      "inputs": [
        {
          "name": "rca",
          "type": "address"
        }
      ],
      "name": "submitReportCard",
      "outputs": [],
      "payable": false,
      "stateMutability": "nonpayable",
      "type": "function"
    },
    {
      "constant": true,
      "inputs": [],
      "name": "schoolName",
      "outputs": [
        {
          "name": "",
          "type": "bytes32"
        }
      ],
      "payable": false,
      "stateMutability": "view",
      "type": "function"
    },
    {
      "constant": false,
      "inputs": [
        {
          "name": "student",
          "type": "address"
        }
      ],
      "name": "getNumberOfGrades",
      "outputs": [
        {
          "name": "ret",
          "type": "uint256"
        }
      ],
      "payable": false,
      "stateMutability": "nonpayable",
      "type": "function"
    },
    {
      "inputs": [
        {
          "name": "name",
          "type": "bytes32"
        }
      ],
      "payable": false,
      "stateMutability": "nonpayable",
      "type": "constructor"
    },
    {
      "anonymous": false,
      "inputs": [
        {
          "indexed": false,
          "name": "gs",
          "type": "string"
        }
      ],
      "name": "GradesSubmitted",
      "type": "event"
    }
  ],
  "bytecode": "0x6060604052341561000f57600080fd5b6040516020806114bf83398101604052808051906020019091905050806001816000191690555050611479806100466000396000f3006060604052600436106100d0576000357c0100000000000000000000000000000000000000000000000000000000900463ffffffff1680630fcd7316146100d5578063176366c4146101225780632e0308fb1461015b5780633399de5d1461020d5780634fc555c3146102895780635a029723146102ba5780636117cbb01461034a57806375d2c1181461039757806380ca20c71461041c578063b46bff89146104b8578063d1486ff21461050d578063d1e5e48914610536578063d2619fe01461056f578063d5993349146105a0575b600080fd5b34156100e057600080fd5b61010c600480803573ffffffffffffffffffffffffffffffffffffffff169060200190919050506105ed565b6040518082815260200191505060405180910390f35b341561012d57600080fd5b610159600480803573ffffffffffffffffffffffffffffffffffffffff16906020019091905050610636565b005b341561016657600080fd5b610192600480803573ffffffffffffffffffffffffffffffffffffffff1690602001909190505061067a565b6040518080602001828103825283818151815260200191508051906020019080838360005b838110156101d25780820151818401526020810190506101b7565b50505050905090810190601f1680156101ff5780820380516001836020036101000a031916815260200191505b509250505060405180910390f35b341561021857600080fd5b610287600480803573ffffffffffffffffffffffffffffffffffffffff1690602001909190803590602001908201803590602001908080601f01602080910402602001604051908101604052809392919081815260200183838082843782019150505050505091905050610781565b005b341561029457600080fd5b61029c61093e565b60405180826000191660001916815260200191505060405180910390f35b34156102c557600080fd5b610334600480803573ffffffffffffffffffffffffffffffffffffffff1690602001909190803590602001908201803590602001908080601f01602080910402602001604051908101604052809392919081815260200183838082843782019150505050505091905050610948565b6040518082815260200191505060405180910390f35b341561035557600080fd5b610381600480803573ffffffffffffffffffffffffffffffffffffffff16906020019091905050610a1b565b6040518082815260200191505060405180910390f35b34156103a257600080fd5b61041a600480803573ffffffffffffffffffffffffffffffffffffffff1690602001909190803590602001908201803590602001908080601f01602080910402602001604051908101604052809392919081815260200183838082843782019150505050505091908035906020019091905050610ca5565b005b341561042757600080fd5b61043d6004808035906020019091905050610ee2565b6040518080602001828103825283818151815260200191508051906020019080838360005b8381101561047d578082015181840152602081019050610462565b50505050905090810190601f1680156104aa5780820380516001836020036101000a031916815260200191505b509250505060405180910390f35b34156104c357600080fd5b6104cb610faa565b604051808273ffffffffffffffffffffffffffffffffffffffff1673ffffffffffffffffffffffffffffffffffffffff16815260200191505060405180910390f35b341561051857600080fd5b610520610fd0565b6040518082815260200191505060405180910390f35b341561054157600080fd5b61056d600480803573ffffffffffffffffffffffffffffffffffffffff16906020019091905050610fdd565b005b341561057a57600080fd5b6105826110d2565b60405180826000191660001916815260200191505060405180910390f35b34156105ab57600080fd5b6105d7600480803573ffffffffffffffffffffffffffffffffffffffff169060200190919050506110d8565b6040518082815260200191505060405180910390f35b6000600360008373ffffffffffffffffffffffffffffffffffffffff1673ffffffffffffffffffffffffffffffffffffffff168152602001908152602001600020549050919050565b80600260006101000a81548173ffffffffffffffffffffffffffffffffffffffff021916908373ffffffffffffffffffffffffffffffffffffffff16021790555050565b610682611144565b6004600360008473ffffffffffffffffffffffffffffffffffffffff1673ffffffffffffffffffffffffffffffffffffffff168152602001908152602001600020548154811015156106d057fe5b90600052602060002090600402016003018054600181600116156101000203166002900480601f0160208091040260200160405190810160405280929190818152602001828054600181600116156101000203166002900480156107755780601f1061074a57610100808354040283529160200191610775565b820191906000526020600020905b81548152906001019060200180831161075857829003601f168201915b50505050509050919050565b6000600480548060010182816107979190611158565b91600052602060002090600402016000600590919091506000820160009054906101000a900473ffffffffffffffffffffffffffffffffffffffff168160000160006101000a81548173ffffffffffffffffffffffffffffffffffffffff021916908373ffffffffffffffffffffffffffffffffffffffff160217905550600282018160020190805461082b92919061118a565b50600382018160030190805460018160011615610100020316600290046108539291906111fa565b50505090508260046001830381548110151561086b57fe5b906000526020600020906004020160000160006101000a81548173ffffffffffffffffffffffffffffffffffffffff021916908373ffffffffffffffffffffffffffffffffffffffff160217905550816004600183038154811015156108cd57fe5b906000526020600020906004020160030190805190602001906108f1929190611281565b5060018103600360008573ffffffffffffffffffffffffffffffffffffffff1673ffffffffffffffffffffffffffffffffffffffff16815260200190815260200160002081905550505050565b6000600154905090565b60006004600360008573ffffffffffffffffffffffffffffffffffffffff1673ffffffffffffffffffffffffffffffffffffffff1681526020019081526020016000205481548110151561099857fe5b9060005260206000209060040201600101826040518082805190602001908083835b6020831015156109df57805182526020820191506020810190506020830392506109ba565b6001836020036101000a038019825116818451168082178552505050505050905001915050908152602001604051809103902054905092915050565b6000610a25611144565b60008060008060006004600360008a73ffffffffffffffffffffffffffffffffffffffff1673ffffffffffffffffffffffffffffffffffffffff16815260200190815260200160002054815481101515610a7b57fe5b9060005260206000209060040201600201805490509250600090505b60018303811015610c94576004600360008a73ffffffffffffffffffffffffffffffffffffffff1673ffffffffffffffffffffffffffffffffffffffff16815260200190815260200160002054815481101515610af057fe5b906000526020600020906004020160020181815481101515610b0e57fe5b90600052602060002090018054600181600116156101000203166002900480601f016020809104026020016040519081016040528092919081815260200182805460018160011615610100020316600290048015610bad5780601f10610b8257610100808354040283529160200191610bad565b820191906000526020600020905b815481529060010190602001808311610b9057829003601f168201915b505050505095506004600360008a73ffffffffffffffffffffffffffffffffffffffff1673ffffffffffffffffffffffffffffffffffffffff16815260200190815260200160002054815481101515610c0257fe5b9060005260206000209060040201600101866040518082805190602001908083835b602083101515610c495780518252602082019150602081019050602083039250610c24565b6001836020036101000a038019825116818451168082178552505050505050905001915050908152602001604051809103902054945060648502840193508080600101915050610a97565b839150819650505050505050919050565b60006004600360008673ffffffffffffffffffffffffffffffffffffffff1673ffffffffffffffffffffffffffffffffffffffff16815260200190815260200160002054815481101515610cf557fe5b9060005260206000209060040201600101836040518082805190602001908083835b602083101515610d3c5780518252602082019150602081019050602083039250610d17565b6001836020036101000a0380198251168184511680821785525050505050509050019150509081526020016040518091039020541415610e10576004600360008573ffffffffffffffffffffffffffffffffffffffff1673ffffffffffffffffffffffffffffffffffffffff16815260200190815260200160002054815481101515610dc457fe5b90600052602060002090600402016002018054806001018281610de79190611301565b916000526020600020900160008490919091509080519060200190610e0d929190611281565b50505b806004600360008673ffffffffffffffffffffffffffffffffffffffff1673ffffffffffffffffffffffffffffffffffffffff16815260200190815260200160002054815481101515610e5f57fe5b9060005260206000209060040201600101836040518082805190602001908083835b602083101515610ea65780518252602082019150602081019050602083039250610e81565b6001836020036101000a038019825116818451168082178552505050505050905001915050908152602001604051809103902081905550505050565b610eea611144565b600482815481101515610ef957fe5b90600052602060002090600402016003018054600181600116156101000203166002900480601f016020809104026020016040519081016040528092919081815260200182805460018160011615610100020316600290048015610f9e5780601f10610f7357610100808354040283529160200191610f9e565b820191906000526020600020905b815481529060010190602001808311610f8157829003601f168201915b50505050509050919050565b600260009054906101000a900473ffffffffffffffffffffffffffffffffffffffff1681565b6000600480549050905090565b7f67bf02f1f1be5404803027fd1eb3361cf7dcc467536f0aab5a6ba6013dd926b160405180806020018281038252600f8152602001807f4772616465735375626d6974746564000000000000000000000000000000000081525060200191505060405180910390a18073ffffffffffffffffffffffffffffffffffffffff166371b6b69061106a83610a1b565b6040518263ffffffff167c010000000000000000000000000000000000000000000000000000000002815260040180828152602001915050600060405180830381600087803b15156110bb57600080fd5b6102c65a03f115156110cc57600080fd5b50505050565b60015481565b60006004600360008473ffffffffffffffffffffffffffffffffffffffff1673ffffffffffffffffffffffffffffffffffffffff1681526020019081526020016000205481548110151561112857fe5b9060005260206000209060040201600201805490509050919050565b602060405190810160405280600081525090565b81548183558181151161118557600402816004028360005260206000209182019101611184919061132d565b5b505050565b8280548282559060005260206000209081019282156111e95760005260206000209182015b828111156111e857828290805460018160011615610100020316600290046111d89291906111fa565b50916001019190600101906111af565b5b5090506111f69190611393565b5090565b828054600181600116156101000203166002900490600052602060002090601f016020900481019282601f106112335780548555611270565b8280016001018555821561127057600052602060002091601f016020900482015b8281111561126f578254825591600101919060010190611254565b5b50905061127d91906113bf565b5090565b828054600181600116156101000203166002900490600052602060002090601f016020900481019282601f106112c257805160ff19168380011785556112f0565b828001600101855582156112f0579182015b828111156112ef5782518255916020019190600101906112d4565b5b5090506112fd91906113bf565b5090565b815481835581811511611328578183600052602060002091820191016113279190611393565b5b505050565b61139091905b8082111561138c57600080820160006101000a81549073ffffffffffffffffffffffffffffffffffffffff021916905560028201600061137391906113e4565b6003820160006113839190611405565b50600401611333565b5090565b90565b6113bc91905b808211156113b857600081816113af9190611405565b50600101611399565b5090565b90565b6113e191905b808211156113dd5760008160009055506001016113c5565b5090565b90565b50805460008255906000526020600020908101906114029190611393565b50565b50805460018160011615610100020316600290046000825580601f1061142b575061144a565b601f01602090049060005260206000209081019061144991906113bf565b5b505600a165627a7a72305820a0ff000e760d4de17412cf2869c143333ea8eeb2902ed0030b16eb024117f8210029",
  "source": "pragma solidity ^0.4.2;\r\nimport \"./ReportCard.sol\";\r\ncontract School {\r\n    ReportCard rc;\r\n    bytes32 public schoolName ;\r\n\r\n   event GradesSubmitted(string gs );\r\n\r\n    //todo change to array of teachers\r\n    address public teacher;\r\n\r\n    //Student id uint\r\n    mapping(address => uint) reportCard;\r\n    \r\n    function School (bytes32 name) public {\r\n        schoolName = name;\r\n    }\r\n    \r\n    struct ReportCardStruct {\r\n        address studentReportCard;                         //address of student \r\n        mapping(string => uint) subjectGradeMapping;       //grades  of student\r\n        string[] subjectList;\r\n        string studentName;\r\n    }\r\n\r\n    ReportCardStruct[] reportCards;\r\n    ReportCardStruct emptyReportCard;\r\n   \r\n\r\n    function registerReportCard(address rca, string name) public {\r\n        uint nl = reportCards.push(emptyReportCard);\r\n        reportCards[nl-1].studentReportCard = rca;\r\n        reportCards[nl-1].studentName = name;\r\n        reportCard[rca] = nl - 1;\r\n \r\n    }\r\n\r\n    function getNumberOfReportCards() public view returns (uint ret) {\r\n        return (reportCards.length);\r\n    }    \r\n    \r\n     function enterGrades(address rca, string subject, uint _grade) public {\r\n            if (reportCards[reportCard[rca]].subjectGradeMapping[subject] == 0) {\r\n                reportCards[reportCard[rca]].subjectList.push(subject);\r\n            }\r\n            reportCards[reportCard[rca]].subjectGradeMapping[subject] = _grade;\r\n    }\r\n\r\n    function submitReportCard(ReportCard rca) {\r\n        \r\n        GradesSubmitted(\"GradesSubmitted\");\r\n        rca.setGPA(calculateGPA(rca));\r\n\r\n    }\r\n\r\n    function calculateGPA(address rca) returns (uint ret) {\r\n        string memory subject;\r\n        uint grade;\r\n        uint score;\r\n        uint noof = reportCards[reportCard[rca]].subjectList.length;\r\n        uint gpa;\r\n\r\n          for (uint i = 0;i < noof-1;i++) {\r\n                subject= reportCards[reportCard[rca]].subjectList[i];\r\n                grade = reportCards[reportCard[rca]].subjectGradeMapping[subject];\r\n                score += grade * 100;\r\n          }\r\n          gpa = score;\r\n        return (gpa);\r\n    }\r\n\r\n    function listGrade(address student, string subject ) returns (uint ret) {\r\n        return uint(reportCards[reportCard[student]].subjectGradeMapping[subject]);\r\n    }\r\n\r\n    function getNumberOfGrades(address student) returns (uint ret) {\r\n        return reportCards[reportCard[student]].subjectList.length;\r\n    }\r\n\r\n    function setTeacher(address ta) {\r\n        teacher = ta;\r\n    }\r\n\r\n    function getSchoolName() constant returns (bytes32) {\r\n        return schoolName;\r\n    }\r\n\r\n    function getStudentNumber(address student) returns(uint) {\r\n        return reportCard[student];\r\n    }\r\n\r\n    function getStudentName(address student) returns(string) {\r\n        return reportCards[reportCard[student]].studentName;\r\n    }\r\n\r\n    function getStudentNameByNumber(uint number) returns(string) {\r\n        return reportCards[number].studentName;\r\n    }\r\n    \r\n}",
  "sourcePath": "/home/antonio/DAPPS/reportcard_pjs/contracts/School.sol",
  "compiler": {
    "name": "solc",
    "version": "0.4.18+commit.9cf6e910.Emscripten.clang"
  },
  "schemaVersion": "1.0.1",
  "updatedAt": "2017-12-06T01:17:37.212Z"
}